:1018000050C084C069C068C067C066C065C064C09D
:1018100063C062C061C060C05FC05EC05DC05CC0CC
:101820005BC05AC059C00600FF0901A1011500267E
:10183000FF007508850195060900B2020185029531
:10184000830900B20201C0090222000101008032B6
:101850000904000001030000000921010100012228
:101860002100070581030800C812011001000000D3
:1018700008C016DF050001010200011003480049FD
:1018800000440042006F006F00740012036F00629A
:10189000006400650076002E0061007400040309F6
:1018A000040011241FBECFE5D4E0DEBFCDBF10E0A1
:1018B000A0E6B0E0EEEBFEE102C005900D92AA3684
:1018C000B107D9F710E0AAE6B0E001C01D92AB392C
:1018D000B107E1F74CD1F1C293CFA82FB92F80E027
:1018E00090E041E050EA609530E009C02D918227F8
:1018F0009795879510F084279527305EC8F36F5F22
:10190000A8F30895EADF8D939D930895CF93CFB701
:10191000CF93C395809BE9F7809B09C0809B07C04C
:10192000809B05C0809B03C0809B01C0A3C0DF9348
:10193000C0917E00DD27CB57DF4F809B02C0DF9137
:10194000EBCF2F930F931F9300B32FEF00FB20F9E2
:101950004F933F9310B34FEF012700FB21F93BE07A
:1019600031C04E7F012F10B3216028C0102F4D7F52
:101970002260000000B329C04B7F2460012F0000CB
:1019800010B32BC010B3477F28602AC04F7E00B32E
:1019900020612CC04F7D10B320622FC04F7B00B35D
:1019A000206432C0422700B349934FEF0000102754
:1019B00010FB20F910B31570C9F1297F91F20127AE
:1019C00000FB21F900B3237F89F2315058F1102731
:1019D00010FB22F910B3277E79F2012700FB23F9CF
:1019E0002F7C81F200B3102710FB24F92F7971F2BC
:1019F00000C010B3012700FB25F92F7359F200C076
:101A000000B3102710FB26F9223040F200C010B3BB
:101A1000012700FB27F9243028F64F77206810B300
:101A20000000F9CF10E41ABF002719C03B503195D0
:101A3000C31BD04010E41ABF0881033CF9F00B34FB
:101A4000E9F020917C001981110F1213EDCF4A812A
:101A5000441F093641F10D3211F0013E29F7009380
:101A600083003F914F911F910F912F91DF91CAB742
:101A7000C6FD4FCFCF91CFBFCF9118952091830056
:101A8000222379F310918100112321F5343022F1C2
:101A90003093810020937D0010917E003BE0311B4C
:101AA00030937E0019C00091810001309CF40AE55A
:101AB0004F7081F43091600034FD10C000936000DD
:101AC000C1E7D0E00FC02795A8F45150A9F4220F28
:101AD0000000F9CF4AE503C042ED01C0432FC4E145
:101AE000D0E032E011B31560909A11BB02B320E44C
:101AF00015E05F93012756E002BB279520F4515073
:101B000021F4220FF9CF012756E000003B5A02BB17
:101B1000D0F2279528F4515029F4220F0000F9CF74
:101B2000012756E0279502BB20F4515021F4220FE3
:101B3000F9CF012756E02991332302BB21F60A7F12
:101B400010918200110FC651D04002BB11F01093CA
:101B50007C0010E41ABF016011B31A7F402F4A7F46
:101B60005F9100C000C002BB11BB42BB7ACF88E0CE
:101B700082BB88E28A95F1F783998EC181E08BBFA1
:101B800082E08BBF85B7836085BF8BB780648BBFD6
:101B9000889A80E0A895E7EBFBE03197F1F700C069
:101BA00000008150B9F788987894C0E0D0E0A895FB
:101BB00060918100462F435047FD1BC120917E005C
:101BC0008CE090E0821B9109DC01AB57BF4F209164
:101BD0007D002D3209F0C0C0483009F008C123EC67
:101BE000209371002AE52093600010926B003C91D5
:101BF000432F407611962C9111974423E1F0293020
:101C000079F412968C911297823031F410926C0014
:101C100037FD8DC02FEF8EC081E080936A004BC1ED
:101C2000213009F048C182E690E0909380008093D3
:101C30007F0027E083C012963C91129710927A00A1
:101C4000222331F410927B008AE790E022E06AC000
:101C5000253019F43093820059C0263009F050C065
:101C6000FC01E957FF4F208188579F4FFC0180817D
:101C7000813019F489E698E11AC0823041F487E492
:101C800098E19093800080937F0022E235C08330FA
:101C9000F1F4222341F48DE998E190938000809340
:101CA0007F0024E029C0213041F48BE898E1909333
:101CB000800080937F0022E11FC02230E1F48BE797
:101CC00098E19093800080937F0020E115C08132DD
:101CD00041F489E598E19093800080937F0029E0AA
:101CE0000BC0823241F486E298E1909380008093A9
:101CF0007F0021E201C020E080E480936B001EC0E1
:101D0000283069F0293029F4309384008AE790E084
:101D100004C08AE790E02A3021F020E003C084E884
:101D200090E021E09093800080937F0007C016969A
:101D30002C91169780E880936B000BC017968C91BE
:101D40001797882331F416968C911697821708F40A
:101D5000282F209361004BC020916B0027FF47C0C4
:101D600020916D0030916E0050916C00552359F414
:101D7000FC01EA57FF4F208189579F4FFC013081BA
:101D80001496462F4750540F50936C005078822F72
:101D90008F7351F4F89483E0F90180935700E8952C
:101DA000789407B600FCFDCFF8948D919D9161E089
:101DB000F9010C0160935700E895112478942E5F87
:101DC0003F4F822F8F7349F4F89485E0809357003A
:101DD000E895789407B600FCFDCF4250C1F63093E9
:101DE0006E0020936D00552311F010926100109247
:101DF00081008091600084FF3BC0809161008F3F33
:101E0000B9F1182F893008F018E0811B8093610028
:101E10008091710098E88927809371001123E1F087
:101E2000E0917F00F091800080916B0086FF09C0F7
:101E3000812FA2E7B0E094919D9331968150D9F71C
:101E400007C0812FA2E7B0E091919D938150E1F707
:101E5000F0938000E0937F0082E790E0612F52DDF5
:101E60001C5F1C3019F08FEF8093610010936000AD
:101E700084E190B3957031F48150D9F710928200CB
:101E800010927C0080916A00882321F0D15011F4D7
:101E9000C15011F0839B8BCEF89481E18093570061
:101EA000E8951BBE15BE81E08BBF1BBEE0916F00A5
:0E1EB000F0917000099520E041CFF894FFCF2B
:0A1EBE005AFF014000002000000060
:0400000300001800E1
:00000001FF
