:107C00000C94453E09022200010100C03209040023
:107C100000010300000009211101000122210007D9
:107C20000581034000C800000C94723E96C012010A
:107C3000100100000040C016DF0500010102000134
:107C40000600FF0901A101150026FF007508850146
:107C500095060900B20201850295830900B202016E
:107C6000C012036F0062006400650076002E0061A0
:107C7000007400100348004900440042006F006F88
:107C80000074000180000080000011241FBECFEFAF
:107C9000DAE0DEBFCDBF14BE88E10FB6F894809362
:107CA0006000109260000FBE0E94E03F0C94003E06
:107CB0000C94003E81E08093D70085BF82E085BFB1
:107CC00080EA8093D80082E189BD09B400FEFDCF2F
:107CD00080E98093D8001092E00088E08093E20071
:107CE000789408958091E1001092E10083FF0FC025
:107CF0001092E90081E08093EB001092EC0082E3A7
:107D00008093ED0088E08093F00010928401189534
:107D1000AC017EEF8091E800282F30E0C90185702A
:107D20009070892BB9F322FD17C0362F613408F00B
:107D300030E4CA01232F06C0FC010196E491E093D0
:107D4000F10021502223C1F7430F511D7093E80029
:107D5000631B01F73034F1F208951092E90080912D
:107D6000E80083FF29C16091F1003091F10080911A
:107D7000F100482F50E02091F100922F80E0482B35
:107D8000592B8091F1008091F1008091F100E82F52
:107D9000F0E02091F100922F80E0E82BF92B82EFA8
:107DA0008093E800363091F5852F99278130910531
:107DB00019F42EE23CE714C08230910521F424E04E
:107DC0003CE762E217C08232910521F420E43CE7EF
:107DD00061E210C083E04130580721F421E63CE71E
:107DE00062E108C083E04230580709F0E5C023E7AC
:107DF0003CE760E1CF018070892B19F4E61708F4A5
:107E00006E2FC9010E94883E1895D6C0353069F49E
:107E10008EEF8093E8008091E80080FFFCCF842FF4
:107E200080688093E3001895C7C03930C9F4662391
:107E3000B1F58EEF8093E8004093840181E0809358
:107E4000E9008093EB0081EC8093EC0082E3809367
:107E5000ED008EE78093EA001092EA001895ACC01E
:107E6000383081F4603809F0A7C08091E80080FFC5
:107E7000FCCF809184018093F1008EEF8093E80025
:107E800018959AC03A3041F4613209F095C08EEFEE
:107E90008093E800189590C0393009F081C06132B4
:107EA00009F08AC04130B1F41092E20081E0809381
:107EB000E00080E28093D80081E180935700E8954C
:107EC00081E085BF15BE8FEF9FE70197F1F70C9416
:107ED0000000FFCF9E2F40E051E06BEF8091E80063
:107EE00082FFFCCF913418F4392F90E002C09054F7
:107EF00030E4FA01232F04C08091F10081932150D6
:107F00002223D1F7430F511D6093E800992331F7E5
:107F10008EEF8093E800809101018093850180912C
:107F200002018093860160918501709186019B0119
:107F300040E050E013E0B1E0A5E0C9018F77907018
:107F4000892B39F4F90110935700E89507B600FC26
:107F5000FDCFFA01E050FF4F84819581F9010C01BA
:107F6000B0935700E8951124E9012296CE018F774E
:107F70009070009731F4A0935700E89507B600FC85
:107F8000FDCF4E5F5F4F4038510511F09E01D5CFB8
:107F900060587F4F709386016093850118950CC0DF
:107FA000313051F4613A41F4413031F483E89CE7D7
:107FB00067E00E94883E189581E28093EB00189557
:107FC00080E090E020E80FB6F89420936100809361
:107FD00061000FBE0E945A3E81E083BF8895FECFAC
:0400000300007C007D
:00000001FF
