:020000021000EC
:10FC00000C9445FE09022200010100C032090400E3
:10FC10000001030000000921110100012221000759
:10FC20000581034000C800000C9491FE90C00100C3
:10FC30000100000200100348004900440042006F28
:10FC4000006F00740012036F0062006400650076AC
:10FC5000002E00610074000600FF0901A1011500DB
:10FC600026FF007508850195060900B2020185028C
:10FC700095830900B20201C012011001000000408A
:10FC8000C016DF0500010102000111241FBECFEFE5
:10FC9000D0E2DEBFCDBF14BE88E10FB6F8948093EA
:10FCA0006000109260000FBE0E94DDFF0C9400FE09
:10FCB0000C9400FE4EEF2091E800322F3570D9F3FE
:10FCC00022FD15C0262F613408F020E4FC01322FFC
:10FCD000315028F054915093F1003196F9CF820FB2
:10FCE000911D4093E800621B31F7203421F3089501
:10FCF00081E88093D70081E085BF82E085BF80EAFC
:10FD00008093D8008EE089BD09B400FEFDCF80E964
:10FD10008093D8001092E00088E08093E20078940D
:10FD200008958091E1001092E10083FF0FC01092CE
:10FD3000E90081E08093EB001092EC0082E3809375
:10FD4000ED0088E08093F000109204011895109265
:10FD5000E9008091E80083FF2CC15091F1004091AF
:10FD6000F1008091F1002091F10090E0922B209120
:10FD7000F1002091F1002091F1006091F10030E05C
:10FD8000362B62EF6093E800463091F5492F5527F6
:10FD90004130510599F042305105A1F042325105F0
:10FDA000A9F0813043E09407A9F0823043E0940742
:10FDB00009F0FFC085E39CEF60E10FC088E79CEF8E
:10FDC00062E10BC084E09CEF62E207C087E59CEF34
:10FDD00061E203C085E49CEF62E1A9014427452B61
:10FDE00019F4261708F4622F0E945AFE1895E1C0F4
:10FDF000453061F42EEF2093E8002091E80020FFC9
:10FE0000FCCF80688093E3001895D3C04930C9F4D3
:10FE1000511136C09EEF9093E8008093040181E079
:10FE20008093E9008093EB0081EC8093EC0082E307
:10FE30008093ED008EE78093EA001092EA00189517
:10FE4000B8C0483081F4503809F0B3C08091E80060
:10FE500080FFFCCF809104018093F1008EEF8093AE
:10FE6000E8001895A6C04A3041F4513209F0A1C00B
:10FE70008EEF8093E80018959CC0493009F08DC042
:10FE8000513209F096C08130A9F41092E2008093BB
:10FE9000E00080E28093D80081E180935700E895EC
:10FEA00081E085BF15BE80E395E70197F1F70C94DB
:10FEB0000000FFCF85E091E05BEF3091E80032FF7A
:10FEC000FCCF213420F030EC320F20E401C030E0D0
:10FED000FC01422F03C06091F10061934150D8F7BB
:10FEE000820F911D5093E800332311F0232FE5CFAB
:10FEF0008EEF8093E800809106018093000180914D
:10FF00000701809301018091080180930201109202
:10FF10000301C9E0D1E013E001E085E0F82E36C02E
:10FF20008091000190910101A0910201B091030123
:10FF3000811109C0FC01A0935B0010935700E89564
:10FF400007B600FCFDCF299139910901FC01A0936E
:10FF50005B0000935700E8951124AC01BD014E5F92
:10FF60005F4F6F4F7F4F40930001509301016093AB
:10FF7000020170930301411109C0FC01A0935B00D1
:10FF8000F0925700E89507B600FCFDCF81E0C93834
:10FF9000D80709F0C5CF18950CC0413051F4513A3B
:10FFA00041F4813031F467E08EE29CEF0E945AFE0A
:10FFB000189581E28093EB00189590E080E80FB6E9
:10FFC000F89480936100909361000FBE0E9478FEC8
:08FFD00081E083BF8895FECF9C
:040000031000FC00ED
:00000001FF
