:107C00000C94473E09022200010100C03209040021
:107C100000010300000009211101000122210007D9
:107C20000581034000C800000C945A3E0C94903E1D
:107C30008DC001800000800000100348004900440E
:107C40000042006F006F00740012036F0062006456
:107C500000650076002E00610074000600FF090137
:107C6000A101150026FF007508850195060900B2DF
:107C70000201850295830900B20201C012011001C0
:107C800000000040C016DF050001010200011124C0
:107C90001FBECFEFD4E0DEBFCDBF14BE88E10FB66C
:107CA000F89480936000109260000FBE0E94C43F61
:107CB0000C94003E0C94003E4EEF2091E800322FD1
:107CC0003570D9F322FD15C0262F613408F020E469
:107CD000FC01322F315028F054915093F10031962D
:107CE000F9CF820F911D4093E800621B31F72034D9
:107CF00021F3089581E085BF82E085BF80EA80930B
:107D0000D80086E089BD09B400FEFDCF80E88093ED
:107D1000D8001092E00088E08093E2007894089503
:107D20008091E1001092E10083FF0FC01092E90002
:107D300081E08093EB001092EC0082E38093ED00F1
:107D400088E08093F0001092020118951092E900EB
:107D50008091E80083FF14C15091F1004091F1003F
:107D60008091F1002091F10090E0922B2091F100A0
:107D70002091F1002091F1006091F10030E0362B6C
:107D800062EF6093E800463091F5492F5527413066
:107D9000510599F042305105A1F042325105A9F048
:107DA000813043E09407A9F0823043E0940709F062
:107DB000E7C089E39CE760E10FC08CE79CE762E1E4
:107DC0000BC084E09CE762E207C08BE59CE761E2C0
:107DD00003C089E49CE762E1A9014427452B19F41B
:107DE000261708F4622F0E945C3E1895C9C04530E2
:107DF00061F42EEF2093E8002091E80020FFFCCFF3
:107E000080688093E3001895BBC04930C9F45111D4
:107E100036C09EEF9093E8008093020181E080934A
:107E2000E9008093EB0081EC8093EC0082E3809387
:107E3000ED008EE78093EA001092EA001895A0C04A
:107E4000483081F4503809F09BC08091E80080FFF1
:107E5000FCCF809102018093F1008EEF8093E800C7
:107E600018958EC04A3041F4513209F089C08EEF26
:107E70008093E800189584C0493009F075C05132EC
:107E800009F07EC08130A9F41092E2008093E000F6
:107E900080E28093D80081E180935700E89581E0EB
:107EA00085BF15BE8FEF9FE70197F1F70C94000097
:107EB000FFCF83E091E05BEF3091E80032FFFCCF31
:107EC000213420F030EC320F20E401C030E0FC011E
:107ED000422F03C06091F10061934150D8F7820FA7
:107EE000911D5093E800332311F0232FE5CF8EEF3F
:107EF0008093E80080910401809300018091050146
:107F000080930101A7E0B1E023E031E045E026C025
:107F1000E0910001F0910101CF018F779927892B22
:107F200031F420935700E89507B600FCFDCF8D9102
:107F30009D910C0130935700E8951124CF010296D2
:107F400090930101809300018F779927009731F476
:107F500040935700E89507B600FCFDCF81E0A738B5
:107F6000B807B1F618950CC0413051F4513A41F4BC
:107F7000813031F467E082E39CE70E945C3E189513
:107F800081E28093EB00189590E080E80FB6F894BA
:107F900080936100909361000FBE0E947A3E81E061
:067FA00083BF8895FECFAF
:0400000300007C007D
:00000001FF
